{
  "contractName": "LightsaberCat",
  "abi": [
    {
      "inputs": [],
      "stateMutability": "nonpayable",
      "type": "constructor"
    },
    {
      "anonymous": false,
      "inputs": [
        {
          "indexed": true,
          "internalType": "address",
          "name": "owner",
          "type": "address"
        },
        {
          "indexed": true,
          "internalType": "address",
          "name": "approved",
          "type": "address"
        },
        {
          "indexed": true,
          "internalType": "uint256",
          "name": "tokenId",
          "type": "uint256"
        }
      ],
      "name": "Approval",
      "type": "event"
    },
    {
      "anonymous": false,
      "inputs": [
        {
          "indexed": true,
          "internalType": "address",
          "name": "owner",
          "type": "address"
        },
        {
          "indexed": true,
          "internalType": "address",
          "name": "operator",
          "type": "address"
        },
        {
          "indexed": false,
          "internalType": "bool",
          "name": "approved",
          "type": "bool"
        }
      ],
      "name": "ApprovalForAll",
      "type": "event"
    },
    {
      "anonymous": false,
      "inputs": [
        {
          "indexed": true,
          "internalType": "address",
          "name": "previousOwner",
          "type": "address"
        },
        {
          "indexed": true,
          "internalType": "address",
          "name": "newOwner",
          "type": "address"
        }
      ],
      "name": "OwnershipTransferred",
      "type": "event"
    },
    {
      "anonymous": false,
      "inputs": [
        {
          "indexed": true,
          "internalType": "address",
          "name": "from",
          "type": "address"
        },
        {
          "indexed": true,
          "internalType": "address",
          "name": "to",
          "type": "address"
        },
        {
          "indexed": true,
          "internalType": "uint256",
          "name": "tokenId",
          "type": "uint256"
        }
      ],
      "name": "Transfer",
      "type": "event"
    },
    {
      "inputs": [
        {
          "internalType": "address",
          "name": "to",
          "type": "address"
        },
        {
          "internalType": "uint256",
          "name": "tokenId",
          "type": "uint256"
        }
      ],
      "name": "approve",
      "outputs": [],
      "stateMutability": "nonpayable",
      "type": "function"
    },
    {
      "inputs": [
        {
          "internalType": "address",
          "name": "owner",
          "type": "address"
        }
      ],
      "name": "balanceOf",
      "outputs": [
        {
          "internalType": "uint256",
          "name": "",
          "type": "uint256"
        }
      ],
      "stateMutability": "view",
      "type": "function",
      "constant": true
    },
    {
      "inputs": [
        {
          "internalType": "uint256",
          "name": "tokenId",
          "type": "uint256"
        }
      ],
      "name": "getApproved",
      "outputs": [
        {
          "internalType": "address",
          "name": "",
          "type": "address"
        }
      ],
      "stateMutability": "view",
      "type": "function",
      "constant": true
    },
    {
      "inputs": [
        {
          "internalType": "address",
          "name": "owner",
          "type": "address"
        },
        {
          "internalType": "address",
          "name": "operator",
          "type": "address"
        }
      ],
      "name": "isApprovedForAll",
      "outputs": [
        {
          "internalType": "bool",
          "name": "",
          "type": "bool"
        }
      ],
      "stateMutability": "view",
      "type": "function",
      "constant": true
    },
    {
      "inputs": [],
      "name": "name",
      "outputs": [
        {
          "internalType": "string",
          "name": "",
          "type": "string"
        }
      ],
      "stateMutability": "view",
      "type": "function",
      "constant": true
    },
    {
      "inputs": [],
      "name": "owner",
      "outputs": [
        {
          "internalType": "address",
          "name": "",
          "type": "address"
        }
      ],
      "stateMutability": "view",
      "type": "function",
      "constant": true
    },
    {
      "inputs": [
        {
          "internalType": "uint256",
          "name": "tokenId",
          "type": "uint256"
        }
      ],
      "name": "ownerOf",
      "outputs": [
        {
          "internalType": "address",
          "name": "",
          "type": "address"
        }
      ],
      "stateMutability": "view",
      "type": "function",
      "constant": true
    },
    {
      "inputs": [],
      "name": "renounceOwnership",
      "outputs": [],
      "stateMutability": "nonpayable",
      "type": "function"
    },
    {
      "inputs": [
        {
          "internalType": "address",
          "name": "from",
          "type": "address"
        },
        {
          "internalType": "address",
          "name": "to",
          "type": "address"
        },
        {
          "internalType": "uint256",
          "name": "tokenId",
          "type": "uint256"
        }
      ],
      "name": "safeTransferFrom",
      "outputs": [],
      "stateMutability": "nonpayable",
      "type": "function"
    },
    {
      "inputs": [
        {
          "internalType": "address",
          "name": "from",
          "type": "address"
        },
        {
          "internalType": "address",
          "name": "to",
          "type": "address"
        },
        {
          "internalType": "uint256",
          "name": "tokenId",
          "type": "uint256"
        },
        {
          "internalType": "bytes",
          "name": "data",
          "type": "bytes"
        }
      ],
      "name": "safeTransferFrom",
      "outputs": [],
      "stateMutability": "nonpayable",
      "type": "function"
    },
    {
      "inputs": [
        {
          "internalType": "address",
          "name": "operator",
          "type": "address"
        },
        {
          "internalType": "bool",
          "name": "approved",
          "type": "bool"
        }
      ],
      "name": "setApprovalForAll",
      "outputs": [],
      "stateMutability": "nonpayable",
      "type": "function"
    },
    {
      "inputs": [],
      "name": "symbol",
      "outputs": [
        {
          "internalType": "string",
          "name": "",
          "type": "string"
        }
      ],
      "stateMutability": "view",
      "type": "function",
      "constant": true
    },
    {
      "inputs": [
        {
          "internalType": "uint256",
          "name": "index",
          "type": "uint256"
        }
      ],
      "name": "tokenByIndex",
      "outputs": [
        {
          "internalType": "uint256",
          "name": "",
          "type": "uint256"
        }
      ],
      "stateMutability": "view",
      "type": "function",
      "constant": true
    },
    {
      "inputs": [
        {
          "internalType": "address",
          "name": "owner",
          "type": "address"
        },
        {
          "internalType": "uint256",
          "name": "index",
          "type": "uint256"
        }
      ],
      "name": "tokenOfOwnerByIndex",
      "outputs": [
        {
          "internalType": "uint256",
          "name": "",
          "type": "uint256"
        }
      ],
      "stateMutability": "view",
      "type": "function",
      "constant": true
    },
    {
      "inputs": [],
      "name": "totalSupply",
      "outputs": [
        {
          "internalType": "uint256",
          "name": "",
          "type": "uint256"
        }
      ],
      "stateMutability": "view",
      "type": "function",
      "constant": true
    },
    {
      "inputs": [
        {
          "internalType": "address",
          "name": "from",
          "type": "address"
        },
        {
          "internalType": "address",
          "name": "to",
          "type": "address"
        },
        {
          "internalType": "uint256",
          "name": "tokenId",
          "type": "uint256"
        }
      ],
      "name": "transferFrom",
      "outputs": [],
      "stateMutability": "nonpayable",
      "type": "function"
    },
    {
      "inputs": [
        {
          "internalType": "address",
          "name": "newOwner",
          "type": "address"
        }
      ],
      "name": "transferOwnership",
      "outputs": [],
      "stateMutability": "nonpayable",
      "type": "function"
    },
    {
      "inputs": [
        {
          "internalType": "address",
          "name": "to",
          "type": "address"
        },
        {
          "internalType": "string",
          "name": "uri",
          "type": "string"
        }
      ],
      "name": "safeMint",
      "outputs": [],
      "stateMutability": "nonpayable",
      "type": "function"
    },
    {
      "inputs": [
        {
          "internalType": "uint256",
          "name": "tokenId",
          "type": "uint256"
        }
      ],
      "name": "tokenURI",
      "outputs": [
        {
          "internalType": "string",
          "name": "",
          "type": "string"
        }
      ],
      "stateMutability": "view",
      "type": "function",
      "constant": true
    },
    {
      "inputs": [
        {
          "internalType": "bytes4",
          "name": "interfaceId",
          "type": "bytes4"
        }
      ],
      "name": "supportsInterface",
      "outputs": [
        {
          "internalType": "bool",
          "name": "",
          "type": "bool"
        }
      ],
      "stateMutability": "view",
      "type": "function",
      "constant": true
    }
  ],
  "bytecode": "0x60806040526103e8600c553480156200001757600080fd5b506040518060400160405280600d81526020017f4c696768747361626572436174000000000000000000000000000000000000008152506040518060400160405280600581526020017f4c53434154000000000000000000000000000000000000000000000000000000815250816000908162000095919062000418565b508060019081620000a7919062000418565b505050620000ca620000be620000d060201b60201c565b620000d860201b60201c565b620004ff565b600033905090565b6000600b60009054906101000a900473ffffffffffffffffffffffffffffffffffffffff16905081600b60006101000a81548173ffffffffffffffffffffffffffffffffffffffff021916908373ffffffffffffffffffffffffffffffffffffffff1602179055508173ffffffffffffffffffffffffffffffffffffffff168173ffffffffffffffffffffffffffffffffffffffff167f8be0079c531659141344cd1fd0a4f28419497f9722a3daafe3b4186f6b6457e060405160405180910390a35050565b600081519050919050565b7f4e487b7100000000000000000000000000000000000000000000000000000000600052604160045260246000fd5b7f4e487b7100000000000000000000000000000000000000000000000000000000600052602260045260246000fd5b600060028204905060018216806200022057607f821691505b602082108103620002365762000235620001d8565b5b50919050565b60008190508160005260206000209050919050565b60006020601f8301049050919050565b600082821b905092915050565b600060088302620002a07fffffffffffffffffffffffffffffffffffffffffffffffffffffffffffffffff8262000261565b620002ac868362000261565b95508019841693508086168417925050509392505050565b6000819050919050565b6000819050919050565b6000620002f9620002f3620002ed84620002c4565b620002ce565b620002c4565b9050919050565b6000819050919050565b6200031583620002d8565b6200032d620003248262000300565b8484546200026e565b825550505050565b600090565b6200034462000335565b620003518184846200030a565b505050565b5b8181101562000379576200036d6000826200033a565b60018101905062000357565b5050565b601f821115620003c85762000392816200023c565b6200039d8462000251565b81016020851015620003ad578190505b620003c5620003bc8562000251565b83018262000356565b50505b505050565b600082821c905092915050565b6000620003ed60001984600802620003cd565b1980831691505092915050565b6000620004088383620003da565b9150826002028217905092915050565b62000423826200019e565b67ffffffffffffffff8111156200043f576200043e620001a9565b5b6200044b825462000207565b620004588282856200037d565b600060209050601f8311600181146200049057600084156200047b578287015190505b620004878582620003fa565b865550620004f7565b601f198416620004a0866200023c565b60005b82811015620004ca57848901518255600182019150602085019450602081019050620004a3565b86831015620004ea5784890151620004e6601f891682620003da565b8355505b6001600288020188555050505b505050505050565b613814806200050f6000396000f3fe608060405234801561001057600080fd5b506004361061012c5760003560e01c806370a08231116100ad578063b88d4fde11610071578063b88d4fde14610343578063c87b56dd1461035f578063d204c45e1461038f578063e985e9c5146103ab578063f2fde38b146103db5761012c565b806370a08231146102b1578063715018a6146102e15780638da5cb5b146102eb57806395d89b4114610309578063a22cb465146103275761012c565b806323b872dd116100f457806323b872dd146101e95780632f745c591461020557806342842e0e146102355780634f6ccce7146102515780636352211e146102815761012c565b806301ffc9a71461013157806306fdde0314610161578063081812fc1461017f578063095ea7b3146101af57806318160ddd146101cb575b600080fd5b61014b60048036038101906101469190612322565b6103f7565b604051610158919061236a565b60405180910390f35b610169610409565b6040516101769190612415565b60405180910390f35b6101996004803603810190610194919061246d565b61049b565b6040516101a691906124db565b60405180910390f35b6101c960048036038101906101c49190612522565b6104e1565b005b6101d36105f8565b6040516101e09190612571565b60405180910390f35b61020360048036038101906101fe919061258c565b610605565b005b61021f600480360381019061021a9190612522565b610665565b60405161022c9190612571565b60405180910390f35b61024f600480360381019061024a919061258c565b61070a565b005b61026b6004803603810190610266919061246d565b61072a565b6040516102789190612571565b60405180910390f35b61029b6004803603810190610296919061246d565b61079b565b6040516102a891906124db565b60405180910390f35b6102cb60048036038101906102c691906125df565b610821565b6040516102d89190612571565b60405180910390f35b6102e96108d8565b005b6102f36108ec565b60405161030091906124db565b60405180910390f35b610311610916565b60405161031e9190612415565b60405180910390f35b610341600480360381019061033c9190612638565b6109a8565b005b61035d600480360381019061035891906127ad565b6109be565b005b6103796004803603810190610374919061246d565b610a20565b6040516103869190612415565b60405180910390f35b6103a960048036038101906103a491906128d1565b610a32565b005b6103c560048036038101906103c0919061292d565b610ab0565b6040516103d2919061236a565b60405180910390f35b6103f560048036038101906103f091906125df565b610b44565b005b600061040282610bc7565b9050919050565b6060600080546104189061299c565b80601f01602080910402602001604051908101604052809291908181526020018280546104449061299c565b80156104915780601f1061046657610100808354040283529160200191610491565b820191906000526020600020905b81548152906001019060200180831161047457829003601f168201915b5050505050905090565b60006104a682610c41565b6004600083815260200190815260200160002060009054906101000a900473ffffffffffffffffffffffffffffffffffffffff169050919050565b60006104ec8261079b565b90508073ffffffffffffffffffffffffffffffffffffffff168373ffffffffffffffffffffffffffffffffffffffff160361055c576040517f08c379a000000000000000000000000000000000000000000000000000000000815260040161055390612a3f565b60405180910390fd5b8073ffffffffffffffffffffffffffffffffffffffff1661057b610c8c565b73ffffffffffffffffffffffffffffffffffffffff1614806105aa57506105a9816105a4610c8c565b610ab0565b5b6105e9576040517f08c379a00000000000000000000000000000000000000000000000000000000081526004016105e090612ad1565b60405180910390fd5b6105f38383610c94565b505050565b6000600880549050905090565b610616610610610c8c565b82610d4d565b610655576040517f08c379a000000000000000000000000000000000000000000000000000000000815260040161064c90612b63565b60405180910390fd5b610660838383610de2565b505050565b600061067083610821565b82106106b1576040517f08c379a00000000000000000000000000000000000000000000000000000000081526004016106a890612bf5565b60405180910390fd5b600660008473ffffffffffffffffffffffffffffffffffffffff1673ffffffffffffffffffffffffffffffffffffffff168152602001908152602001600020600083815260200190815260200160002054905092915050565b610725838383604051806020016040528060008152506109be565b505050565b60006107346105f8565b8210610775576040517f08c379a000000000000000000000000000000000000000000000000000000000815260040161076c90612c87565b60405180910390fd5b6008828154811061078957610788612ca7565b5b90600052602060002001549050919050565b6000806107a7836110db565b9050600073ffffffffffffffffffffffffffffffffffffffff168173ffffffffffffffffffffffffffffffffffffffff1603610818576040517f08c379a000000000000000000000000000000000000000000000000000000000815260040161080f90612d22565b60405180910390fd5b80915050919050565b60008073ffffffffffffffffffffffffffffffffffffffff168273ffffffffffffffffffffffffffffffffffffffff1603610891576040517f08c379a000000000000000000000000000000000000000000000000000000000815260040161088890612db4565b60405180910390fd5b600360008373ffffffffffffffffffffffffffffffffffffffff1673ffffffffffffffffffffffffffffffffffffffff168152602001908152602001600020549050919050565b6108e0611118565b6108ea6000611196565b565b6000600b60009054906101000a900473ffffffffffffffffffffffffffffffffffffffff16905090565b6060600180546109259061299c565b80601f01602080910402602001604051908101604052809291908181526020018280546109519061299c565b801561099e5780601f106109735761010080835404028352916020019161099e565b820191906000526020600020905b81548152906001019060200180831161098157829003601f168201915b5050505050905090565b6109ba6109b3610c8c565b838361125c565b5050565b6109cf6109c9610c8c565b83610d4d565b610a0e576040517f08c379a0000000000000000000000000000000000000000000000000000000008152600401610a0590612b63565b60405180910390fd5b610a1a848484846113c8565b50505050565b6060610a2b82611424565b9050919050565b610a3a611118565b6000610a46600d611536565b9050600c54811115610a8d576040517f08c379a0000000000000000000000000000000000000000000000000000000008152600401610a8490612e20565b60405180910390fd5b610a97600d611544565b610aa1838261155a565b610aab8183611578565b505050565b6000600560008473ffffffffffffffffffffffffffffffffffffffff1673ffffffffffffffffffffffffffffffffffffffff16815260200190815260200160002060008373ffffffffffffffffffffffffffffffffffffffff1673ffffffffffffffffffffffffffffffffffffffff16815260200190815260200160002060009054906101000a900460ff16905092915050565b610b4c611118565b600073ffffffffffffffffffffffffffffffffffffffff168173ffffffffffffffffffffffffffffffffffffffff1603610bbb576040517f08c379a0000000000000000000000000000000000000000000000000000000008152600401610bb290612eb2565b60405180910390fd5b610bc481611196565b50565b60007f780e9d63000000000000000000000000000000000000000000000000000000007bffffffffffffffffffffffffffffffffffffffffffffffffffffffff1916827bffffffffffffffffffffffffffffffffffffffffffffffffffffffff19161480610c3a5750610c39826115e5565b5b9050919050565b610c4a816116c7565b610c89576040517f08c379a0000000000000000000000000000000000000000000000000000000008152600401610c8090612d22565b60405180910390fd5b50565b600033905090565b816004600083815260200190815260200160002060006101000a81548173ffffffffffffffffffffffffffffffffffffffff021916908373ffffffffffffffffffffffffffffffffffffffff160217905550808273ffffffffffffffffffffffffffffffffffffffff16610d078361079b565b73ffffffffffffffffffffffffffffffffffffffff167f8c5be1e5ebec7d5bd14f71427d1e84f3dd0314c0f7b2291e5b200ac8c7c3b92560405160405180910390a45050565b600080610d598361079b565b90508073ffffffffffffffffffffffffffffffffffffffff168473ffffffffffffffffffffffffffffffffffffffff161480610d9b5750610d9a8185610ab0565b5b80610dd957508373ffffffffffffffffffffffffffffffffffffffff16610dc18461049b565b73ffffffffffffffffffffffffffffffffffffffff16145b91505092915050565b8273ffffffffffffffffffffffffffffffffffffffff16610e028261079b565b73ffffffffffffffffffffffffffffffffffffffff1614610e58576040517f08c379a0000000000000000000000000000000000000000000000000000000008152600401610e4f90612f44565b60405180910390fd5b600073ffffffffffffffffffffffffffffffffffffffff168273ffffffffffffffffffffffffffffffffffffffff1603610ec7576040517f08c379a0000000000000000000000000000000000000000000000000000000008152600401610ebe90612fd6565b60405180910390fd5b610ed48383836001611708565b8273ffffffffffffffffffffffffffffffffffffffff16610ef48261079b565b73ffffffffffffffffffffffffffffffffffffffff1614610f4a576040517f08c379a0000000000000000000000000000000000000000000000000000000008152600401610f4190612f44565b60405180910390fd5b6004600082815260200190815260200160002060006101000a81549073ffffffffffffffffffffffffffffffffffffffff02191690556001600360008573ffffffffffffffffffffffffffffffffffffffff1673ffffffffffffffffffffffffffffffffffffffff168152602001908152602001600020600082825403925050819055506001600360008473ffffffffffffffffffffffffffffffffffffffff1673ffffffffffffffffffffffffffffffffffffffff16815260200190815260200160002060008282540192505081905550816002600083815260200190815260200160002060006101000a81548173ffffffffffffffffffffffffffffffffffffffff021916908373ffffffffffffffffffffffffffffffffffffffff160217905550808273ffffffffffffffffffffffffffffffffffffffff168473ffffffffffffffffffffffffffffffffffffffff167fddf252ad1be2c89b69c2b068fc378daa952ba7f163c4a11628f55a4df523b3ef60405160405180910390a46110d6838383600161171a565b505050565b60006002600083815260200190815260200160002060009054906101000a900473ffffffffffffffffffffffffffffffffffffffff169050919050565b611120610c8c565b73ffffffffffffffffffffffffffffffffffffffff1661113e6108ec565b73ffffffffffffffffffffffffffffffffffffffff1614611194576040517f08c379a000000000000000000000000000000000000000000000000000000000815260040161118b90613042565b60405180910390fd5b565b6000600b60009054906101000a900473ffffffffffffffffffffffffffffffffffffffff16905081600b60006101000a81548173ffffffffffffffffffffffffffffffffffffffff021916908373ffffffffffffffffffffffffffffffffffffffff1602179055508173ffffffffffffffffffffffffffffffffffffffff168173ffffffffffffffffffffffffffffffffffffffff167f8be0079c531659141344cd1fd0a4f28419497f9722a3daafe3b4186f6b6457e060405160405180910390a35050565b8173ffffffffffffffffffffffffffffffffffffffff168373ffffffffffffffffffffffffffffffffffffffff16036112ca576040517f08c379a00000000000000000000000000000000000000000000000000000000081526004016112c1906130ae565b60405180910390fd5b80600560008573ffffffffffffffffffffffffffffffffffffffff1673ffffffffffffffffffffffffffffffffffffffff16815260200190815260200160002060008473ffffffffffffffffffffffffffffffffffffffff1673ffffffffffffffffffffffffffffffffffffffff16815260200190815260200160002060006101000a81548160ff0219169083151502179055508173ffffffffffffffffffffffffffffffffffffffff168373ffffffffffffffffffffffffffffffffffffffff167f17307eab39ab6107e8899845ad3d59bd9653f200f220920489ca2b5937696c31836040516113bb919061236a565b60405180910390a3505050565b6113d3848484610de2565b6113df84848484611720565b61141e576040517f08c379a000000000000000000000000000000000000000000000000000000000815260040161141590613140565b60405180910390fd5b50505050565b606061142f82610c41565b6000600a6000848152602001908152602001600020805461144f9061299c565b80601f016020809104026020016040519081016040528092919081815260200182805461147b9061299c565b80156114c85780601f1061149d576101008083540402835291602001916114c8565b820191906000526020600020905b8154815290600101906020018083116114ab57829003601f168201915b5050505050905060006114d96118a7565b905060008151036114ee578192505050611531565b60008251111561152357808260405160200161150b92919061319c565b60405160208183030381529060405292505050611531565b61152c846118be565b925050505b919050565b600081600001549050919050565b6001816000016000828254019250508190555050565b611574828260405180602001604052806000815250611926565b5050565b611581826116c7565b6115c0576040517f08c379a00000000000000000000000000000000000000000000000000000000081526004016115b790613232565b60405180910390fd5b80600a600084815260200190815260200160002090816115e091906133fe565b505050565b60007f80ac58cd000000000000000000000000000000000000000000000000000000007bffffffffffffffffffffffffffffffffffffffffffffffffffffffff1916827bffffffffffffffffffffffffffffffffffffffffffffffffffffffff191614806116b057507f5b5e139f000000000000000000000000000000000000000000000000000000007bffffffffffffffffffffffffffffffffffffffffffffffffffffffff1916827bffffffffffffffffffffffffffffffffffffffffffffffffffffffff1916145b806116c057506116bf82611981565b5b9050919050565b60008073ffffffffffffffffffffffffffffffffffffffff166116e9836110db565b73ffffffffffffffffffffffffffffffffffffffff1614159050919050565b611714848484846119eb565b50505050565b50505050565b60006117418473ffffffffffffffffffffffffffffffffffffffff16611b49565b1561189a578373ffffffffffffffffffffffffffffffffffffffff1663150b7a0261176a610c8c565b8786866040518563ffffffff1660e01b815260040161178c9493929190613525565b6020604051808303816000875af19250505080156117c857506040513d601f19601f820116820180604052508101906117c59190613586565b60015b61184a573d80600081146117f8576040519150601f19603f3d011682016040523d82523d6000602084013e6117fd565b606091505b506000815103611842576040517f08c379a000000000000000000000000000000000000000000000000000000000815260040161183990613140565b60405180910390fd5b805181602001fd5b63150b7a0260e01b7bffffffffffffffffffffffffffffffffffffffffffffffffffffffff1916817bffffffffffffffffffffffffffffffffffffffffffffffffffffffff19161491505061189f565b600190505b949350505050565b606060405180602001604052806000815250905090565b60606118c982610c41565b60006118d36118a7565b905060008151116118f3576040518060200160405280600081525061191e565b806118fd84611b6c565b60405160200161190e92919061319c565b6040516020818303038152906040525b915050919050565b6119308383611c3a565b61193d6000848484611720565b61197c576040517f08c379a000000000000000000000000000000000000000000000000000000000815260040161197390613140565b60405180910390fd5b505050565b60007f01ffc9a7000000000000000000000000000000000000000000000000000000007bffffffffffffffffffffffffffffffffffffffffffffffffffffffff1916827bffffffffffffffffffffffffffffffffffffffffffffffffffffffff1916149050919050565b6119f784848484611e57565b6001811115611a3b576040517f08c379a0000000000000000000000000000000000000000000000000000000008152600401611a3290613625565b60405180910390fd5b6000829050600073ffffffffffffffffffffffffffffffffffffffff168573ffffffffffffffffffffffffffffffffffffffff1603611a8257611a7d81611e5d565b611ac1565b8373ffffffffffffffffffffffffffffffffffffffff168573ffffffffffffffffffffffffffffffffffffffff1614611ac057611abf8582611ea6565b5b5b600073ffffffffffffffffffffffffffffffffffffffff168473ffffffffffffffffffffffffffffffffffffffff1603611b0357611afe81612013565b611b42565b8473ffffffffffffffffffffffffffffffffffffffff168473ffffffffffffffffffffffffffffffffffffffff1614611b4157611b4084826120e4565b5b5b5050505050565b6000808273ffffffffffffffffffffffffffffffffffffffff163b119050919050565b606060006001611b7b84612163565b01905060008167ffffffffffffffff811115611b9a57611b99612682565b5b6040519080825280601f01601f191660200182016040528015611bcc5781602001600182028036833780820191505090505b509050600082602001820190505b600115611c2f578080600190039150507f3031323334353637383961626364656600000000000000000000000000000000600a86061a8153600a8581611c2357611c22613645565b5b04945060008503611bda575b819350505050919050565b600073ffffffffffffffffffffffffffffffffffffffff168273ffffffffffffffffffffffffffffffffffffffff1603611ca9576040517f08c379a0000000000000000000000000000000000000000000000000000000008152600401611ca0906136c0565b60405180910390fd5b611cb2816116c7565b15611cf2576040517f08c379a0000000000000000000000000000000000000000000000000000000008152600401611ce99061372c565b60405180910390fd5b611d00600083836001611708565b611d09816116c7565b15611d49576040517f08c379a0000000000000000000000000000000000000000000000000000000008152600401611d409061372c565b60405180910390fd5b6001600360008473ffffffffffffffffffffffffffffffffffffffff1673ffffffffffffffffffffffffffffffffffffffff16815260200190815260200160002060008282540192505081905550816002600083815260200190815260200160002060006101000a81548173ffffffffffffffffffffffffffffffffffffffff021916908373ffffffffffffffffffffffffffffffffffffffff160217905550808273ffffffffffffffffffffffffffffffffffffffff16600073ffffffffffffffffffffffffffffffffffffffff167fddf252ad1be2c89b69c2b068fc378daa952ba7f163c4a11628f55a4df523b3ef60405160405180910390a4611e5360008383600161171a565b5050565b50505050565b6008805490506009600083815260200190815260200160002081905550600881908060018154018082558091505060019003906000526020600020016000909190919091505550565b60006001611eb384610821565b611ebd919061377b565b9050600060076000848152602001908152602001600020549050818114611fa2576000600660008673ffffffffffffffffffffffffffffffffffffffff1673ffffffffffffffffffffffffffffffffffffffff168152602001908152602001600020600084815260200190815260200160002054905080600660008773ffffffffffffffffffffffffffffffffffffffff1673ffffffffffffffffffffffffffffffffffffffff168152602001908152602001600020600084815260200190815260200160002081905550816007600083815260200190815260200160002081905550505b6007600084815260200190815260200160002060009055600660008573ffffffffffffffffffffffffffffffffffffffff1673ffffffffffffffffffffffffffffffffffffffff16815260200190815260200160002060008381526020019081526020016000206000905550505050565b60006001600880549050612027919061377b565b905060006009600084815260200190815260200160002054905060006008838154811061205757612056612ca7565b5b90600052602060002001549050806008838154811061207957612078612ca7565b5b9060005260206000200181905550816009600083815260200190815260200160002081905550600960008581526020019081526020016000206000905560088054806120c8576120c76137af565b5b6001900381819060005260206000200160009055905550505050565b60006120ef83610821565b905081600660008573ffffffffffffffffffffffffffffffffffffffff1673ffffffffffffffffffffffffffffffffffffffff168152602001908152602001600020600083815260200190815260200160002081905550806007600084815260200190815260200160002081905550505050565b600080600090507a184f03e93ff9f4daa797ed6e38ed64bf6a1f01000000000000000083106121c1577a184f03e93ff9f4daa797ed6e38ed64bf6a1f01000000000000000083816121b7576121b6613645565b5b0492506040810190505b6d04ee2d6d415b85acef810000000083106121fe576d04ee2d6d415b85acef810000000083816121f4576121f3613645565b5b0492506020810190505b662386f26fc10000831061222d57662386f26fc10000838161222357612222613645565b5b0492506010810190505b6305f5e1008310612256576305f5e100838161224c5761224b613645565b5b0492506008810190505b612710831061227b57612710838161227157612270613645565b5b0492506004810190505b6064831061229e576064838161229457612293613645565b5b0492506002810190505b600a83106122ad576001810190505b80915050919050565b6000604051905090565b600080fd5b600080fd5b60007fffffffff0000000000000000000000000000000000000000000000000000000082169050919050565b6122ff816122ca565b811461230a57600080fd5b50565b60008135905061231c816122f6565b92915050565b600060208284031215612338576123376122c0565b5b60006123468482850161230d565b91505092915050565b60008115159050919050565b6123648161234f565b82525050565b600060208201905061237f600083018461235b565b92915050565b600081519050919050565b600082825260208201905092915050565b60005b838110156123bf5780820151818401526020810190506123a4565b60008484015250505050565b6000601f19601f8301169050919050565b60006123e782612385565b6123f18185612390565b93506124018185602086016123a1565b61240a816123cb565b840191505092915050565b6000602082019050818103600083015261242f81846123dc565b905092915050565b6000819050919050565b61244a81612437565b811461245557600080fd5b50565b60008135905061246781612441565b92915050565b600060208284031215612483576124826122c0565b5b600061249184828501612458565b91505092915050565b600073ffffffffffffffffffffffffffffffffffffffff82169050919050565b60006124c58261249a565b9050919050565b6124d5816124ba565b82525050565b60006020820190506124f060008301846124cc565b92915050565b6124ff816124ba565b811461250a57600080fd5b50565b60008135905061251c816124f6565b92915050565b60008060408385031215612539576125386122c0565b5b60006125478582860161250d565b925050602061255885828601612458565b9150509250929050565b61256b81612437565b82525050565b60006020820190506125866000830184612562565b92915050565b6000806000606084860312156125a5576125a46122c0565b5b60006125b38682870161250d565b93505060206125c48682870161250d565b92505060406125d586828701612458565b9150509250925092565b6000602082840312156125f5576125f46122c0565b5b60006126038482850161250d565b91505092915050565b6126158161234f565b811461262057600080fd5b50565b6000813590506126328161260c565b92915050565b6000806040838503121561264f5761264e6122c0565b5b600061265d8582860161250d565b925050602061266e85828601612623565b9150509250929050565b600080fd5b600080fd5b7f4e487b7100000000000000000000000000000000000000000000000000000000600052604160045260246000fd5b6126ba826123cb565b810181811067ffffffffffffffff821117156126d9576126d8612682565b5b80604052505050565b60006126ec6122b6565b90506126f882826126b1565b919050565b600067ffffffffffffffff82111561271857612717612682565b5b612721826123cb565b9050602081019050919050565b82818337600083830152505050565b600061275061274b846126fd565b6126e2565b90508281526020810184848401111561276c5761276b61267d565b5b61277784828561272e565b509392505050565b600082601f83011261279457612793612678565b5b81356127a484826020860161273d565b91505092915050565b600080600080608085870312156127c7576127c66122c0565b5b60006127d58782880161250d565b94505060206127e68782880161250d565b93505060406127f787828801612458565b925050606085013567ffffffffffffffff811115612818576128176122c5565b5b6128248782880161277f565b91505092959194509250565b600067ffffffffffffffff82111561284b5761284a612682565b5b612854826123cb565b9050602081019050919050565b600061287461286f84612830565b6126e2565b9050828152602081018484840111156128905761288f61267d565b5b61289b84828561272e565b509392505050565b600082601f8301126128b8576128b7612678565b5b81356128c8848260208601612861565b91505092915050565b600080604083850312156128e8576128e76122c0565b5b60006128f68582860161250d565b925050602083013567ffffffffffffffff811115612917576129166122c5565b5b612923858286016128a3565b9150509250929050565b60008060408385031215612944576129436122c0565b5b60006129528582860161250d565b92505060206129638582860161250d565b9150509250929050565b7f4e487b7100000000000000000000000000000000000000000000000000000000600052602260045260246000fd5b600060028204905060018216806129b457607f821691505b6020821081036129c7576129c661296d565b5b50919050565b7f4552433732313a20617070726f76616c20746f2063757272656e74206f776e6560008201527f7200000000000000000000000000000000000000000000000000000000000000602082015250565b6000612a29602183612390565b9150612a34826129cd565b604082019050919050565b60006020820190508181036000830152612a5881612a1c565b9050919050565b7f4552433732313a20617070726f76652063616c6c6572206973206e6f7420746f60008201527f6b656e206f776e6572206f7220617070726f76656420666f7220616c6c000000602082015250565b6000612abb603d83612390565b9150612ac682612a5f565b604082019050919050565b60006020820190508181036000830152612aea81612aae565b9050919050565b7f4552433732313a2063616c6c6572206973206e6f7420746f6b656e206f776e6560008201527f72206f7220617070726f76656400000000000000000000000000000000000000602082015250565b6000612b4d602d83612390565b9150612b5882612af1565b604082019050919050565b60006020820190508181036000830152612b7c81612b40565b9050919050565b7f455243373231456e756d657261626c653a206f776e657220696e646578206f7560008201527f74206f6620626f756e6473000000000000000000000000000000000000000000602082015250565b6000612bdf602b83612390565b9150612bea82612b83565b604082019050919050565b60006020820190508181036000830152612c0e81612bd2565b9050919050565b7f455243373231456e756d657261626c653a20676c6f62616c20696e646578206f60008201527f7574206f6620626f756e64730000000000000000000000000000000000000000602082015250565b6000612c71602c83612390565b9150612c7c82612c15565b604082019050919050565b60006020820190508181036000830152612ca081612c64565b9050919050565b7f4e487b7100000000000000000000000000000000000000000000000000000000600052603260045260246000fd5b7f4552433732313a20696e76616c696420746f6b656e2049440000000000000000600082015250565b6000612d0c601883612390565b9150612d1782612cd6565b602082019050919050565b60006020820190508181036000830152612d3b81612cff565b9050919050565b7f4552433732313a2061646472657373207a65726f206973206e6f74206120766160008201527f6c6964206f776e65720000000000000000000000000000000000000000000000602082015250565b6000612d9e602983612390565b9150612da982612d42565b604082019050919050565b60006020820190508181036000830152612dcd81612d91565b9050919050565b7f536f7272792c2074686520636170207761732072656163686564000000000000600082015250565b6000612e0a601a83612390565b9150612e1582612dd4565b602082019050919050565b60006020820190508181036000830152612e3981612dfd565b9050919050565b7f4f776e61626c653a206e6577206f776e657220697320746865207a65726f206160008201527f6464726573730000000000000000000000000000000000000000000000000000602082015250565b6000612e9c602683612390565b9150612ea782612e40565b604082019050919050565b60006020820190508181036000830152612ecb81612e8f565b9050919050565b7f4552433732313a207472616e736665722066726f6d20696e636f72726563742060008201527f6f776e6572000000000000000000000000000000000000000000000000000000602082015250565b6000612f2e602583612390565b9150612f3982612ed2565b604082019050919050565b60006020820190508181036000830152612f5d81612f21565b9050919050565b7f4552433732313a207472616e7366657220746f20746865207a65726f2061646460008201527f7265737300000000000000000000000000000000000000000000000000000000602082015250565b6000612fc0602483612390565b9150612fcb82612f64565b604082019050919050565b60006020820190508181036000830152612fef81612fb3565b9050919050565b7f4f776e61626c653a2063616c6c6572206973206e6f7420746865206f776e6572600082015250565b600061302c602083612390565b915061303782612ff6565b602082019050919050565b6000602082019050818103600083015261305b8161301f565b9050919050565b7f4552433732313a20617070726f766520746f2063616c6c657200000000000000600082015250565b6000613098601983612390565b91506130a382613062565b602082019050919050565b600060208201905081810360008301526130c78161308b565b9050919050565b7f4552433732313a207472616e7366657220746f206e6f6e20455243373231526560008201527f63656976657220696d706c656d656e7465720000000000000000000000000000602082015250565b600061312a603283612390565b9150613135826130ce565b604082019050919050565b600060208201905081810360008301526131598161311d565b9050919050565b600081905092915050565b600061317682612385565b6131808185613160565b93506131908185602086016123a1565b80840191505092915050565b60006131a8828561316b565b91506131b4828461316b565b91508190509392505050565b7f45524337323155524953746f726167653a2055524920736574206f66206e6f6e60008201527f6578697374656e7420746f6b656e000000000000000000000000000000000000602082015250565b600061321c602e83612390565b9150613227826131c0565b604082019050919050565b6000602082019050818103600083015261324b8161320f565b9050919050565b60008190508160005260206000209050919050565b60006020601f8301049050919050565b600082821b905092915050565b6000600883026132b47fffffffffffffffffffffffffffffffffffffffffffffffffffffffffffffffff82613277565b6132be8683613277565b95508019841693508086168417925050509392505050565b6000819050919050565b60006132fb6132f66132f184612437565b6132d6565b612437565b9050919050565b6000819050919050565b613315836132e0565b61332961332182613302565b848454613284565b825550505050565b600090565b61333e613331565b61334981848461330c565b505050565b5b8181101561336d57613362600082613336565b60018101905061334f565b5050565b601f8211156133b25761338381613252565b61338c84613267565b8101602085101561339b578190505b6133af6133a785613267565b83018261334e565b50505b505050565b600082821c905092915050565b60006133d5600019846008026133b7565b1980831691505092915050565b60006133ee83836133c4565b9150826002028217905092915050565b61340782612385565b67ffffffffffffffff8111156134205761341f612682565b5b61342a825461299c565b613435828285613371565b600060209050601f8311600181146134685760008415613456578287015190505b61346085826133e2565b8655506134c8565b601f19841661347686613252565b60005b8281101561349e57848901518255600182019150602085019450602081019050613479565b868310156134bb57848901516134b7601f8916826133c4565b8355505b6001600288020188555050505b505050505050565b600081519050919050565b600082825260208201905092915050565b60006134f7826134d0565b61350181856134db565b93506135118185602086016123a1565b61351a816123cb565b840191505092915050565b600060808201905061353a60008301876124cc565b61354760208301866124cc565b6135546040830185612562565b818103606083015261356681846134ec565b905095945050505050565b600081519050613580816122f6565b92915050565b60006020828403121561359c5761359b6122c0565b5b60006135aa84828501613571565b91505092915050565b7f455243373231456e756d657261626c653a20636f6e736563757469766520747260008201527f616e7366657273206e6f7420737570706f727465640000000000000000000000602082015250565b600061360f603583612390565b915061361a826135b3565b604082019050919050565b6000602082019050818103600083015261363e81613602565b9050919050565b7f4e487b7100000000000000000000000000000000000000000000000000000000600052601260045260246000fd5b7f4552433732313a206d696e7420746f20746865207a65726f2061646472657373600082015250565b60006136aa602083612390565b91506136b582613674565b602082019050919050565b600060208201905081810360008301526136d98161369d565b9050919050565b7f4552433732313a20746f6b656e20616c7265616479206d696e74656400000000600082015250565b6000613716601c83612390565b9150613721826136e0565b602082019050919050565b6000602082019050818103600083015261374581613709565b9050919050565b7f4e487b7100000000000000000000000000000000000000000000000000000000600052601160045260246000fd5b600061378682612437565b915061379183612437565b92508282039050818111156137a9576137a861374c565b5b92915050565b7f4e487b7100000000000000000000000000000000000000000000000000000000600052603160045260246000fdfea26469706673582212202f4fa7d8df47f3b51b793e4f2cd324941269ab98e3f1f892f28ed7004794dc4564736f6c63430008130033",
  "immutableReferences": {},
  "source": "// SPDX-License-Identifier: MIT\npragma solidity ^0.8.9;\n\nimport \"@openzeppelin/contracts/token/ERC721/ERC721.sol\";\nimport \"@openzeppelin/contracts/token/ERC721/extensions/ERC721Enumerable.sol\";\nimport \"@openzeppelin/contracts/token/ERC721/extensions/ERC721URIStorage.sol\";\nimport \"@openzeppelin/contracts/access/Ownable.sol\";\nimport \"@openzeppelin/contracts/utils/Counters.sol\";\n\ncontract LightsaberCat is ERC721, ERC721Enumerable, ERC721URIStorage, Ownable {\n    using Counters for Counters.Counter;\n\n    uint256 MAX_SUPPLY = 1000;\n\n    Counters.Counter private _tokenIdCounter;\n\n    constructor() ERC721(\"LightsaberCat\", \"LSCAT\") {}\n\n    function safeMint(address to, string memory uri) public onlyOwner {\n        uint256 tokenId = _tokenIdCounter.current();\n        require(tokenId <= MAX_SUPPLY, \"Sorry, the cap was reached\");\n        _tokenIdCounter.increment();\n        _safeMint(to, tokenId);\n        _setTokenURI(tokenId, uri);\n    }\n\n    // The following functions are overrides required by Solidity.\n\n    function _beforeTokenTransfer(address from, address to, uint256 tokenId, uint256 batchSize)\n        internal\n        override(ERC721, ERC721Enumerable)\n    {\n        super._beforeTokenTransfer(from, to, tokenId, batchSize);\n    }\n\n    function _burn(uint256 tokenId) internal override(ERC721, ERC721URIStorage) {\n        super._burn(tokenId);\n    }\n\n    function tokenURI(uint256 tokenId)\n        public\n        view\n        override(ERC721, ERC721URIStorage)\n        returns (string memory)\n    {\n        return super.tokenURI(tokenId);\n    }\n\n    function supportsInterface(bytes4 interfaceId)\n        public\n        view\n        override(ERC721, ERC721Enumerable)\n        returns (bool)\n    {\n        return super.supportsInterface(interfaceId);\n    }\n}",
  "sourcePath": "/Users/williampoletto/IdeaProjects/lightsaberCat_NFT_solidity/truffle/contracts/LightsaberCat.sol",
  "compiler": {
    "name": "solc",
    "version": "0.8.19+commit.7dd6d404.Emscripten.clang"
  },
  "schemaVersion": "3.4.13",
  "updatedAt": "2023-03-20T21:51:50.029Z",
  "networkType": "ethereum",
  "devdoc": {
    "events": {
      "Approval(address,address,uint256)": {
        "details": "Emitted when `owner` enables `approved` to manage the `tokenId` token."
      },
      "ApprovalForAll(address,address,bool)": {
        "details": "Emitted when `owner` enables or disables (`approved`) `operator` to manage all of its assets."
      },
      "Transfer(address,address,uint256)": {
        "details": "Emitted when `tokenId` token is transferred from `from` to `to`."
      }
    },
    "kind": "dev",
    "methods": {
      "approve(address,uint256)": {
        "details": "See {IERC721-approve}."
      },
      "balanceOf(address)": {
        "details": "See {IERC721-balanceOf}."
      },
      "getApproved(uint256)": {
        "details": "See {IERC721-getApproved}."
      },
      "isApprovedForAll(address,address)": {
        "details": "See {IERC721-isApprovedForAll}."
      },
      "name()": {
        "details": "See {IERC721Metadata-name}."
      },
      "owner()": {
        "details": "Returns the address of the current owner."
      },
      "ownerOf(uint256)": {
        "details": "See {IERC721-ownerOf}."
      },
      "renounceOwnership()": {
        "details": "Leaves the contract without owner. It will not be possible to call `onlyOwner` functions anymore. Can only be called by the current owner. NOTE: Renouncing ownership will leave the contract without an owner, thereby removing any functionality that is only available to the owner."
      },
      "safeTransferFrom(address,address,uint256)": {
        "details": "See {IERC721-safeTransferFrom}."
      },
      "safeTransferFrom(address,address,uint256,bytes)": {
        "details": "See {IERC721-safeTransferFrom}."
      },
      "setApprovalForAll(address,bool)": {
        "details": "See {IERC721-setApprovalForAll}."
      },
      "symbol()": {
        "details": "See {IERC721Metadata-symbol}."
      },
      "tokenByIndex(uint256)": {
        "details": "See {IERC721Enumerable-tokenByIndex}."
      },
      "tokenOfOwnerByIndex(address,uint256)": {
        "details": "See {IERC721Enumerable-tokenOfOwnerByIndex}."
      },
      "totalSupply()": {
        "details": "See {IERC721Enumerable-totalSupply}."
      },
      "transferFrom(address,address,uint256)": {
        "details": "See {IERC721-transferFrom}."
      },
      "transferOwnership(address)": {
        "details": "Transfers ownership of the contract to a new account (`newOwner`). Can only be called by the current owner."
      }
    },
    "version": 1
  },
  "userdoc": {
    "kind": "user",
    "methods": {},
    "version": 1
  }
}