{
  "_format": "hh-sol-artifact-1",
  "contractName": "LightsaberCat",
  "sourceName": "contracts/LightsaberCat.sol",
  "abi": [
    {
      "inputs": [],
      "stateMutability": "nonpayable",
      "type": "constructor"
    },
    {
      "anonymous": false,
      "inputs": [
        {
          "indexed": true,
          "internalType": "address",
          "name": "owner",
          "type": "address"
        },
        {
          "indexed": true,
          "internalType": "address",
          "name": "approved",
          "type": "address"
        },
        {
          "indexed": true,
          "internalType": "uint256",
          "name": "tokenId",
          "type": "uint256"
        }
      ],
      "name": "Approval",
      "type": "event"
    },
    {
      "anonymous": false,
      "inputs": [
        {
          "indexed": true,
          "internalType": "address",
          "name": "owner",
          "type": "address"
        },
        {
          "indexed": true,
          "internalType": "address",
          "name": "operator",
          "type": "address"
        },
        {
          "indexed": false,
          "internalType": "bool",
          "name": "approved",
          "type": "bool"
        }
      ],
      "name": "ApprovalForAll",
      "type": "event"
    },
    {
      "anonymous": false,
      "inputs": [
        {
          "indexed": true,
          "internalType": "address",
          "name": "previousOwner",
          "type": "address"
        },
        {
          "indexed": true,
          "internalType": "address",
          "name": "newOwner",
          "type": "address"
        }
      ],
      "name": "OwnershipTransferred",
      "type": "event"
    },
    {
      "anonymous": false,
      "inputs": [
        {
          "indexed": true,
          "internalType": "address",
          "name": "to",
          "type": "address"
        },
        {
          "indexed": false,
          "internalType": "uint256",
          "name": "tokenId",
          "type": "uint256"
        }
      ],
      "name": "TokenMinted",
      "type": "event"
    },
    {
      "anonymous": false,
      "inputs": [
        {
          "indexed": true,
          "internalType": "address",
          "name": "from",
          "type": "address"
        },
        {
          "indexed": true,
          "internalType": "address",
          "name": "to",
          "type": "address"
        },
        {
          "indexed": true,
          "internalType": "uint256",
          "name": "tokenId",
          "type": "uint256"
        }
      ],
      "name": "Transfer",
      "type": "event"
    },
    {
      "inputs": [
        {
          "internalType": "address",
          "name": "to",
          "type": "address"
        },
        {
          "internalType": "uint256",
          "name": "tokenId",
          "type": "uint256"
        }
      ],
      "name": "approve",
      "outputs": [],
      "stateMutability": "nonpayable",
      "type": "function"
    },
    {
      "inputs": [
        {
          "internalType": "address",
          "name": "owner",
          "type": "address"
        }
      ],
      "name": "balanceOf",
      "outputs": [
        {
          "internalType": "uint256",
          "name": "",
          "type": "uint256"
        }
      ],
      "stateMutability": "view",
      "type": "function"
    },
    {
      "inputs": [
        {
          "internalType": "uint256",
          "name": "tokenId",
          "type": "uint256"
        }
      ],
      "name": "getApproved",
      "outputs": [
        {
          "internalType": "address",
          "name": "",
          "type": "address"
        }
      ],
      "stateMutability": "view",
      "type": "function"
    },
    {
      "inputs": [
        {
          "internalType": "address",
          "name": "owner",
          "type": "address"
        },
        {
          "internalType": "address",
          "name": "operator",
          "type": "address"
        }
      ],
      "name": "isApprovedForAll",
      "outputs": [
        {
          "internalType": "bool",
          "name": "",
          "type": "bool"
        }
      ],
      "stateMutability": "view",
      "type": "function"
    },
    {
      "inputs": [],
      "name": "isPublicMintAllowed",
      "outputs": [
        {
          "internalType": "bool",
          "name": "",
          "type": "bool"
        }
      ],
      "stateMutability": "view",
      "type": "function"
    },
    {
      "inputs": [],
      "name": "maxPerWallet",
      "outputs": [
        {
          "internalType": "uint8",
          "name": "",
          "type": "uint8"
        }
      ],
      "stateMutability": "view",
      "type": "function"
    },
    {
      "inputs": [],
      "name": "maxSupply",
      "outputs": [
        {
          "internalType": "uint16",
          "name": "",
          "type": "uint16"
        }
      ],
      "stateMutability": "view",
      "type": "function"
    },
    {
      "inputs": [
        {
          "internalType": "uint8",
          "name": "quantity",
          "type": "uint8"
        },
        {
          "internalType": "string",
          "name": "uri",
          "type": "string"
        }
      ],
      "name": "mint",
      "outputs": [],
      "stateMutability": "payable",
      "type": "function"
    },
    {
      "inputs": [],
      "name": "mintPrice",
      "outputs": [
        {
          "internalType": "uint256",
          "name": "",
          "type": "uint256"
        }
      ],
      "stateMutability": "view",
      "type": "function"
    },
    {
      "inputs": [],
      "name": "name",
      "outputs": [
        {
          "internalType": "string",
          "name": "",
          "type": "string"
        }
      ],
      "stateMutability": "view",
      "type": "function"
    },
    {
      "inputs": [],
      "name": "owner",
      "outputs": [
        {
          "internalType": "address",
          "name": "",
          "type": "address"
        }
      ],
      "stateMutability": "view",
      "type": "function"
    },
    {
      "inputs": [
        {
          "internalType": "uint256",
          "name": "tokenId",
          "type": "uint256"
        }
      ],
      "name": "ownerOf",
      "outputs": [
        {
          "internalType": "address",
          "name": "",
          "type": "address"
        }
      ],
      "stateMutability": "view",
      "type": "function"
    },
    {
      "inputs": [],
      "name": "renounceOwnership",
      "outputs": [],
      "stateMutability": "nonpayable",
      "type": "function"
    },
    {
      "inputs": [
        {
          "internalType": "address",
          "name": "from",
          "type": "address"
        },
        {
          "internalType": "address",
          "name": "to",
          "type": "address"
        },
        {
          "internalType": "uint256",
          "name": "tokenId",
          "type": "uint256"
        }
      ],
      "name": "safeTransferFrom",
      "outputs": [],
      "stateMutability": "nonpayable",
      "type": "function"
    },
    {
      "inputs": [
        {
          "internalType": "address",
          "name": "from",
          "type": "address"
        },
        {
          "internalType": "address",
          "name": "to",
          "type": "address"
        },
        {
          "internalType": "uint256",
          "name": "tokenId",
          "type": "uint256"
        },
        {
          "internalType": "bytes",
          "name": "data",
          "type": "bytes"
        }
      ],
      "name": "safeTransferFrom",
      "outputs": [],
      "stateMutability": "nonpayable",
      "type": "function"
    },
    {
      "inputs": [
        {
          "internalType": "address",
          "name": "operator",
          "type": "address"
        },
        {
          "internalType": "bool",
          "name": "approved",
          "type": "bool"
        }
      ],
      "name": "setApprovalForAll",
      "outputs": [],
      "stateMutability": "nonpayable",
      "type": "function"
    },
    {
      "inputs": [
        {
          "internalType": "bool",
          "name": "isItAllowed",
          "type": "bool"
        }
      ],
      "name": "setPublicMintAllowed",
      "outputs": [],
      "stateMutability": "nonpayable",
      "type": "function"
    },
    {
      "inputs": [
        {
          "internalType": "bytes4",
          "name": "interfaceId",
          "type": "bytes4"
        }
      ],
      "name": "supportsInterface",
      "outputs": [
        {
          "internalType": "bool",
          "name": "",
          "type": "bool"
        }
      ],
      "stateMutability": "view",
      "type": "function"
    },
    {
      "inputs": [],
      "name": "symbol",
      "outputs": [
        {
          "internalType": "string",
          "name": "",
          "type": "string"
        }
      ],
      "stateMutability": "view",
      "type": "function"
    },
    {
      "inputs": [],
      "name": "tokenIdCounter",
      "outputs": [
        {
          "internalType": "uint256",
          "name": "_value",
          "type": "uint256"
        }
      ],
      "stateMutability": "view",
      "type": "function"
    },
    {
      "inputs": [
        {
          "internalType": "uint256",
          "name": "tokenId",
          "type": "uint256"
        }
      ],
      "name": "tokenURI",
      "outputs": [
        {
          "internalType": "string",
          "name": "",
          "type": "string"
        }
      ],
      "stateMutability": "view",
      "type": "function"
    },
    {
      "inputs": [
        {
          "internalType": "address",
          "name": "from",
          "type": "address"
        },
        {
          "internalType": "address",
          "name": "to",
          "type": "address"
        },
        {
          "internalType": "uint256",
          "name": "tokenId",
          "type": "uint256"
        }
      ],
      "name": "transferFrom",
      "outputs": [],
      "stateMutability": "nonpayable",
      "type": "function"
    },
    {
      "inputs": [
        {
          "internalType": "address",
          "name": "newOwner",
          "type": "address"
        }
      ],
      "name": "transferOwnership",
      "outputs": [],
      "stateMutability": "nonpayable",
      "type": "function"
    },
    {
      "inputs": [
        {
          "internalType": "address",
          "name": "",
          "type": "address"
        }
      ],
      "name": "walletMints",
      "outputs": [
        {
          "internalType": "uint8",
          "name": "",
          "type": "uint8"
        }
      ],
      "stateMutability": "view",
      "type": "function"
    },
    {
      "inputs": [
        {
          "internalType": "address payable",
          "name": "to",
          "type": "address"
        }
      ],
      "name": "withdraw",
      "outputs": [],
      "stateMutability": "nonpayable",
      "type": "function"
    }
  ],
  "bytecode": "0x60806040523480156200001157600080fd5b506040518060400160405280600d81526020017f4c696768747361626572436174000000000000000000000000000000000000008152506040518060400160405280600581526020017f4c5343415400000000000000000000000000000000000000000000000000000081525081600090816200008f91906200045b565b508060019081620000a191906200045b565b505050620000c4620000b86200011360201b60201c565b6200011b60201b60201c565b66470de4df8200006008819055506103e8600760146101000a81548161ffff021916908361ffff1602179055506003600760166101000a81548160ff021916908360ff16021790555062000542565b600033905090565b6000600760009054906101000a900473ffffffffffffffffffffffffffffffffffffffff16905081600760006101000a81548173ffffffffffffffffffffffffffffffffffffffff021916908373ffffffffffffffffffffffffffffffffffffffff1602179055508173ffffffffffffffffffffffffffffffffffffffff168173ffffffffffffffffffffffffffffffffffffffff167f8be0079c531659141344cd1fd0a4f28419497f9722a3daafe3b4186f6b6457e060405160405180910390a35050565b600081519050919050565b7f4e487b7100000000000000000000000000000000000000000000000000000000600052604160045260246000fd5b7f4e487b7100000000000000000000000000000000000000000000000000000000600052602260045260246000fd5b600060028204905060018216806200026357607f821691505b6020821081036200027957620002786200021b565b5b50919050565b60008190508160005260206000209050919050565b60006020601f8301049050919050565b600082821b905092915050565b600060088302620002e37fffffffffffffffffffffffffffffffffffffffffffffffffffffffffffffffff82620002a4565b620002ef8683620002a4565b95508019841693508086168417925050509392505050565b6000819050919050565b6000819050919050565b60006200033c62000336620003308462000307565b62000311565b62000307565b9050919050565b6000819050919050565b62000358836200031b565b62000370620003678262000343565b848454620002b1565b825550505050565b600090565b6200038762000378565b620003948184846200034d565b505050565b5b81811015620003bc57620003b06000826200037d565b6001810190506200039a565b5050565b601f8211156200040b57620003d5816200027f565b620003e08462000294565b81016020851015620003f0578190505b62000408620003ff8562000294565b83018262000399565b50505b505050565b600082821c905092915050565b6000620004306000198460080262000410565b1980831691505092915050565b60006200044b83836200041d565b9150826002028217905092915050565b6200046682620001e1565b67ffffffffffffffff811115620004825762000481620001ec565b5b6200048e82546200024a565b6200049b828285620003c0565b600060209050601f831160018114620004d35760008415620004be578287015190505b620004ca85826200043d565b8655506200053a565b601f198416620004e3866200027f565b60005b828110156200050d57848901518255600182019150602085019450602081019050620004e6565b868310156200052d578489015162000529601f8916826200041d565b8355505b6001600288020188555050505b505050505050565b6138da80620005526000396000f3fe6080604052600436106101665760003560e01c806370a08231116100d1578063b88d4fde1161008a578063d5abeb0111610064578063d5abeb011461051b578063e985e9c514610546578063f0293fd314610583578063f2fde38b146105c057610166565b8063b88d4fde1461048a578063c87b56dd146104b3578063cd08c366146104f057610166565b806370a082311461038c578063715018a6146103c95780638da5cb5b146103e057806395d89b411461040b57806398bdf6f514610436578063a22cb4651461046157610166565b80633d04979d116101235780633d04979d1461028b57806342842e0e146102a7578063453c2310146102d057806351cff8d9146102fb5780636352211e146103245780636817c76c1461036157610166565b80630143e9d01461016b57806301ffc9a71461019457806306fdde03146101d1578063081812fc146101fc578063095ea7b31461023957806323b872dd14610262575b600080fd5b34801561017757600080fd5b50610192600480360381019061018d91906121fa565b6105e9565b005b3480156101a057600080fd5b506101bb60048036038101906101b6919061227f565b61060e565b6040516101c891906122bb565b60405180910390f35b3480156101dd57600080fd5b506101e66106f0565b6040516101f39190612366565b60405180910390f35b34801561020857600080fd5b50610223600480360381019061021e91906123be565b610782565b604051610230919061242c565b60405180910390f35b34801561024557600080fd5b50610260600480360381019061025b9190612473565b6107c8565b005b34801561026e57600080fd5b50610289600480360381019061028491906124b3565b6108df565b005b6102a560048036038101906102a09190612674565b61093f565b005b3480156102b357600080fd5b506102ce60048036038101906102c991906124b3565b610b96565b005b3480156102dc57600080fd5b506102e5610bb6565b6040516102f291906126df565b60405180910390f35b34801561030757600080fd5b50610322600480360381019061031d9190612738565b610bc9565b005b34801561033057600080fd5b5061034b600480360381019061034691906123be565b610c81565b604051610358919061242c565b60405180910390f35b34801561036d57600080fd5b50610376610d07565b6040516103839190612774565b60405180910390f35b34801561039857600080fd5b506103b360048036038101906103ae919061278f565b610d0d565b6040516103c09190612774565b60405180910390f35b3480156103d557600080fd5b506103de610dc4565b005b3480156103ec57600080fd5b506103f5610dd8565b604051610402919061242c565b60405180910390f35b34801561041757600080fd5b50610420610e02565b60405161042d9190612366565b60405180910390f35b34801561044257600080fd5b5061044b610e94565b6040516104589190612774565b60405180910390f35b34801561046d57600080fd5b50610488600480360381019061048391906127bc565b610ea0565b005b34801561049657600080fd5b506104b160048036038101906104ac919061289d565b610eb6565b005b3480156104bf57600080fd5b506104da60048036038101906104d591906123be565b610f18565b6040516104e79190612366565b60405180910390f35b3480156104fc57600080fd5b50610505610f2a565b60405161051291906122bb565b60405180910390f35b34801561052757600080fd5b50610530610f3d565b60405161053d919061293d565b60405180910390f35b34801561055257600080fd5b5061056d60048036038101906105689190612958565b610f51565b60405161057a91906122bb565b60405180910390f35b34801561058f57600080fd5b506105aa60048036038101906105a5919061278f565b610fe5565b6040516105b791906126df565b60405180910390f35b3480156105cc57600080fd5b506105e760048036038101906105e2919061278f565b611005565b005b6105f1611088565b80600960006101000a81548160ff02191690831515021790555050565b60007f80ac58cd000000000000000000000000000000000000000000000000000000007bffffffffffffffffffffffffffffffffffffffffffffffffffffffff1916827bffffffffffffffffffffffffffffffffffffffffffffffffffffffff191614806106d957507f5b5e139f000000000000000000000000000000000000000000000000000000007bffffffffffffffffffffffffffffffffffffffffffffffffffffffff1916827bffffffffffffffffffffffffffffffffffffffffffffffffffffffff1916145b806106e957506106e882611106565b5b9050919050565b6060600080546106ff906129c7565b80601f016020809104026020016040519081016040528092919081815260200182805461072b906129c7565b80156107785780601f1061074d57610100808354040283529160200191610778565b820191906000526020600020905b81548152906001019060200180831161075b57829003601f168201915b5050505050905090565b600061078d82611170565b6004600083815260200190815260200160002060009054906101000a900473ffffffffffffffffffffffffffffffffffffffff169050919050565b60006107d382610c81565b90508073ffffffffffffffffffffffffffffffffffffffff168373ffffffffffffffffffffffffffffffffffffffff1603610843576040517f08c379a000000000000000000000000000000000000000000000000000000000815260040161083a90612a6a565b60405180910390fd5b8073ffffffffffffffffffffffffffffffffffffffff166108626111bb565b73ffffffffffffffffffffffffffffffffffffffff16148061089157506108908161088b6111bb565b610f51565b5b6108d0576040517f08c379a00000000000000000000000000000000000000000000000000000000081526004016108c790612afc565b60405180910390fd5b6108da83836111c3565b505050565b6108f06108ea6111bb565b8261127c565b61092f576040517f08c379a000000000000000000000000000000000000000000000000000000000815260040161092690612b8e565b60405180910390fd5b61093a838383611311565b505050565b600061094b600a61160a565b9050600960009054906101000a900460ff1661099c576040517f08c379a000000000000000000000000000000000000000000000000000000000815260040161099390612bfa565b60405180910390fd5b600760149054906101000a900461ffff1661ffff166109bb600a61160a565b11156109fc576040517f08c379a00000000000000000000000000000000000000000000000000000000081526004016109f390612c8c565b60405180910390fd5b600760169054906101000a900460ff1660ff16600b60003373ffffffffffffffffffffffffffffffffffffffff1673ffffffffffffffffffffffffffffffffffffffff16815260200190815260200160002060009054906101000a900460ff1660ff1610610a9f576040517f08c379a0000000000000000000000000000000000000000000000000000000008152600401610a9690612d1e565b60405180910390fd5b346008548460ff16610ab19190612d6d565b14610af1576040517f08c379a0000000000000000000000000000000000000000000000000000000008152600401610ae890612dfb565b60405180910390fd5b6000600190505b8360ff168160ff1611610b9057610b0f600a611618565b610b19600a61160a565b91503373ffffffffffffffffffffffffffffffffffffffff167fb9144c96c86541f6fa89c9f2f02495cccf4b08cd6643e26d34ee00aa586558a883604051610b619190612774565b60405180910390a2610b73338361162e565b610b7d828461164c565b8080610b8890612e1b565b915050610af8565b50505050565b610bb183838360405180602001604052806000815250610eb6565b505050565b600760169054906101000a900460ff1681565b610bd1611088565b60008173ffffffffffffffffffffffffffffffffffffffff1647604051610bf790612e75565b60006040518083038185875af1925050503d8060008114610c34576040519150601f19603f3d011682016040523d82523d6000602084013e610c39565b606091505b5050905080610c7d576040517f08c379a0000000000000000000000000000000000000000000000000000000008152600401610c7490612ed6565b60405180910390fd5b5050565b600080610c8d836116b9565b9050600073ffffffffffffffffffffffffffffffffffffffff168173ffffffffffffffffffffffffffffffffffffffff1603610cfe576040517f08c379a0000000000000000000000000000000000000000000000000000000008152600401610cf590612f42565b60405180910390fd5b80915050919050565b60085481565b60008073ffffffffffffffffffffffffffffffffffffffff168273ffffffffffffffffffffffffffffffffffffffff1603610d7d576040517f08c379a0000000000000000000000000000000000000000000000000000000008152600401610d7490612fd4565b60405180910390fd5b600360008373ffffffffffffffffffffffffffffffffffffffff1673ffffffffffffffffffffffffffffffffffffffff168152602001908152602001600020549050919050565b610dcc611088565b610dd660006116f6565b565b6000600760009054906101000a900473ffffffffffffffffffffffffffffffffffffffff16905090565b606060018054610e11906129c7565b80601f0160208091040260200160405190810160405280929190818152602001828054610e3d906129c7565b8015610e8a5780601f10610e5f57610100808354040283529160200191610e8a565b820191906000526020600020905b815481529060010190602001808311610e6d57829003601f168201915b5050505050905090565b600a8060000154905081565b610eb2610eab6111bb565b83836117bc565b5050565b610ec7610ec16111bb565b8361127c565b610f06576040517f08c379a0000000000000000000000000000000000000000000000000000000008152600401610efd90612b8e565b60405180910390fd5b610f1284848484611928565b50505050565b6060610f2382611984565b9050919050565b600960009054906101000a900460ff1681565b600760149054906101000a900461ffff1681565b6000600560008473ffffffffffffffffffffffffffffffffffffffff1673ffffffffffffffffffffffffffffffffffffffff16815260200190815260200160002060008373ffffffffffffffffffffffffffffffffffffffff1673ffffffffffffffffffffffffffffffffffffffff16815260200190815260200160002060009054906101000a900460ff16905092915050565b600b6020528060005260406000206000915054906101000a900460ff1681565b61100d611088565b600073ffffffffffffffffffffffffffffffffffffffff168173ffffffffffffffffffffffffffffffffffffffff160361107c576040517f08c379a000000000000000000000000000000000000000000000000000000000815260040161107390613066565b60405180910390fd5b611085816116f6565b50565b6110906111bb565b73ffffffffffffffffffffffffffffffffffffffff166110ae610dd8565b73ffffffffffffffffffffffffffffffffffffffff1614611104576040517f08c379a00000000000000000000000000000000000000000000000000000000081526004016110fb906130d2565b60405180910390fd5b565b60007f01ffc9a7000000000000000000000000000000000000000000000000000000007bffffffffffffffffffffffffffffffffffffffffffffffffffffffff1916827bffffffffffffffffffffffffffffffffffffffffffffffffffffffff1916149050919050565b61117981611a96565b6111b8576040517f08c379a00000000000000000000000000000000000000000000000000000000081526004016111af90612f42565b60405180910390fd5b50565b600033905090565b816004600083815260200190815260200160002060006101000a81548173ffffffffffffffffffffffffffffffffffffffff021916908373ffffffffffffffffffffffffffffffffffffffff160217905550808273ffffffffffffffffffffffffffffffffffffffff1661123683610c81565b73ffffffffffffffffffffffffffffffffffffffff167f8c5be1e5ebec7d5bd14f71427d1e84f3dd0314c0f7b2291e5b200ac8c7c3b92560405160405180910390a45050565b60008061128883610c81565b90508073ffffffffffffffffffffffffffffffffffffffff168473ffffffffffffffffffffffffffffffffffffffff1614806112ca57506112c98185610f51565b5b8061130857508373ffffffffffffffffffffffffffffffffffffffff166112f084610782565b73ffffffffffffffffffffffffffffffffffffffff16145b91505092915050565b8273ffffffffffffffffffffffffffffffffffffffff1661133182610c81565b73ffffffffffffffffffffffffffffffffffffffff1614611387576040517f08c379a000000000000000000000000000000000000000000000000000000000815260040161137e90613164565b60405180910390fd5b600073ffffffffffffffffffffffffffffffffffffffff168273ffffffffffffffffffffffffffffffffffffffff16036113f6576040517f08c379a00000000000000000000000000000000000000000000000000000000081526004016113ed906131f6565b60405180910390fd5b6114038383836001611ad7565b8273ffffffffffffffffffffffffffffffffffffffff1661142382610c81565b73ffffffffffffffffffffffffffffffffffffffff1614611479576040517f08c379a000000000000000000000000000000000000000000000000000000000815260040161147090613164565b60405180910390fd5b6004600082815260200190815260200160002060006101000a81549073ffffffffffffffffffffffffffffffffffffffff02191690556001600360008573ffffffffffffffffffffffffffffffffffffffff1673ffffffffffffffffffffffffffffffffffffffff168152602001908152602001600020600082825403925050819055506001600360008473ffffffffffffffffffffffffffffffffffffffff1673ffffffffffffffffffffffffffffffffffffffff16815260200190815260200160002060008282540192505081905550816002600083815260200190815260200160002060006101000a81548173ffffffffffffffffffffffffffffffffffffffff021916908373ffffffffffffffffffffffffffffffffffffffff160217905550808273ffffffffffffffffffffffffffffffffffffffff168473ffffffffffffffffffffffffffffffffffffffff167fddf252ad1be2c89b69c2b068fc378daa952ba7f163c4a11628f55a4df523b3ef60405160405180910390a46116058383836001611add565b505050565b600081600001549050919050565b6001816000016000828254019250508190555050565b611648828260405180602001604052806000815250611ae3565b5050565b61165582611a96565b611694576040517f08c379a000000000000000000000000000000000000000000000000000000000815260040161168b90613288565b60405180910390fd5b806006600084815260200190815260200160002090816116b49190613454565b505050565b60006002600083815260200190815260200160002060009054906101000a900473ffffffffffffffffffffffffffffffffffffffff169050919050565b6000600760009054906101000a900473ffffffffffffffffffffffffffffffffffffffff16905081600760006101000a81548173ffffffffffffffffffffffffffffffffffffffff021916908373ffffffffffffffffffffffffffffffffffffffff1602179055508173ffffffffffffffffffffffffffffffffffffffff168173ffffffffffffffffffffffffffffffffffffffff167f8be0079c531659141344cd1fd0a4f28419497f9722a3daafe3b4186f6b6457e060405160405180910390a35050565b8173ffffffffffffffffffffffffffffffffffffffff168373ffffffffffffffffffffffffffffffffffffffff160361182a576040517f08c379a000000000000000000000000000000000000000000000000000000000815260040161182190613572565b60405180910390fd5b80600560008573ffffffffffffffffffffffffffffffffffffffff1673ffffffffffffffffffffffffffffffffffffffff16815260200190815260200160002060008473ffffffffffffffffffffffffffffffffffffffff1673ffffffffffffffffffffffffffffffffffffffff16815260200190815260200160002060006101000a81548160ff0219169083151502179055508173ffffffffffffffffffffffffffffffffffffffff168373ffffffffffffffffffffffffffffffffffffffff167f17307eab39ab6107e8899845ad3d59bd9653f200f220920489ca2b5937696c318360405161191b91906122bb565b60405180910390a3505050565b611933848484611311565b61193f84848484611b3e565b61197e576040517f08c379a000000000000000000000000000000000000000000000000000000000815260040161197590613604565b60405180910390fd5b50505050565b606061198f82611170565b60006006600084815260200190815260200160002080546119af906129c7565b80601f01602080910402602001604051908101604052809291908181526020018280546119db906129c7565b8015611a285780601f106119fd57610100808354040283529160200191611a28565b820191906000526020600020905b815481529060010190602001808311611a0b57829003601f168201915b505050505090506000611a39611cc5565b90506000815103611a4e578192505050611a91565b600082511115611a83578082604051602001611a6b929190613660565b60405160208183030381529060405292505050611a91565b611a8c84611ce5565b925050505b919050565b60008073ffffffffffffffffffffffffffffffffffffffff16611ab8836116b9565b73ffffffffffffffffffffffffffffffffffffffff1614159050919050565b50505050565b50505050565b611aed8383611d4d565b611afa6000848484611b3e565b611b39576040517f08c379a0000000000000000000000000000000000000000000000000000000008152600401611b3090613604565b60405180910390fd5b505050565b6000611b5f8473ffffffffffffffffffffffffffffffffffffffff16611f6a565b15611cb8578373ffffffffffffffffffffffffffffffffffffffff1663150b7a02611b886111bb565b8786866040518563ffffffff1660e01b8152600401611baa94939291906136d9565b6020604051808303816000875af1925050508015611be657506040513d601f19601f82011682018060405250810190611be3919061373a565b60015b611c68573d8060008114611c16576040519150601f19603f3d011682016040523d82523d6000602084013e611c1b565b606091505b506000815103611c60576040517f08c379a0000000000000000000000000000000000000000000000000000000008152600401611c5790613604565b60405180910390fd5b805181602001fd5b63150b7a0260e01b7bffffffffffffffffffffffffffffffffffffffffffffffffffffffff1916817bffffffffffffffffffffffffffffffffffffffffffffffffffffffff191614915050611cbd565b600190505b949350505050565b606060405180606001604052806036815260200161386f60369139905090565b6060611cf082611170565b6000611cfa611cc5565b90506000815111611d1a5760405180602001604052806000815250611d45565b80611d2484611f8d565b604051602001611d35929190613660565b6040516020818303038152906040525b915050919050565b600073ffffffffffffffffffffffffffffffffffffffff168273ffffffffffffffffffffffffffffffffffffffff1603611dbc576040517f08c379a0000000000000000000000000000000000000000000000000000000008152600401611db3906137b3565b60405180910390fd5b611dc581611a96565b15611e05576040517f08c379a0000000000000000000000000000000000000000000000000000000008152600401611dfc9061381f565b60405180910390fd5b611e13600083836001611ad7565b611e1c81611a96565b15611e5c576040517f08c379a0000000000000000000000000000000000000000000000000000000008152600401611e539061381f565b60405180910390fd5b6001600360008473ffffffffffffffffffffffffffffffffffffffff1673ffffffffffffffffffffffffffffffffffffffff16815260200190815260200160002060008282540192505081905550816002600083815260200190815260200160002060006101000a81548173ffffffffffffffffffffffffffffffffffffffff021916908373ffffffffffffffffffffffffffffffffffffffff160217905550808273ffffffffffffffffffffffffffffffffffffffff16600073ffffffffffffffffffffffffffffffffffffffff167fddf252ad1be2c89b69c2b068fc378daa952ba7f163c4a11628f55a4df523b3ef60405160405180910390a4611f66600083836001611add565b5050565b6000808273ffffffffffffffffffffffffffffffffffffffff163b119050919050565b606060006001611f9c8461205b565b01905060008167ffffffffffffffff811115611fbb57611fba612549565b5b6040519080825280601f01601f191660200182016040528015611fed5781602001600182028036833780820191505090505b509050600082602001820190505b600115612050578080600190039150507f3031323334353637383961626364656600000000000000000000000000000000600a86061a8153600a85816120445761204361383f565b5b04945060008503611ffb575b819350505050919050565b600080600090507a184f03e93ff9f4daa797ed6e38ed64bf6a1f01000000000000000083106120b9577a184f03e93ff9f4daa797ed6e38ed64bf6a1f01000000000000000083816120af576120ae61383f565b5b0492506040810190505b6d04ee2d6d415b85acef810000000083106120f6576d04ee2d6d415b85acef810000000083816120ec576120eb61383f565b5b0492506020810190505b662386f26fc10000831061212557662386f26fc10000838161211b5761211a61383f565b5b0492506010810190505b6305f5e100831061214e576305f5e10083816121445761214361383f565b5b0492506008810190505b61271083106121735761271083816121695761216861383f565b5b0492506004810190505b60648310612196576064838161218c5761218b61383f565b5b0492506002810190505b600a83106121a5576001810190505b80915050919050565b6000604051905090565b600080fd5b600080fd5b60008115159050919050565b6121d7816121c2565b81146121e257600080fd5b50565b6000813590506121f4816121ce565b92915050565b6000602082840312156122105761220f6121b8565b5b600061221e848285016121e5565b91505092915050565b60007fffffffff0000000000000000000000000000000000000000000000000000000082169050919050565b61225c81612227565b811461226757600080fd5b50565b60008135905061227981612253565b92915050565b600060208284031215612295576122946121b8565b5b60006122a38482850161226a565b91505092915050565b6122b5816121c2565b82525050565b60006020820190506122d060008301846122ac565b92915050565b600081519050919050565b600082825260208201905092915050565b60005b838110156123105780820151818401526020810190506122f5565b60008484015250505050565b6000601f19601f8301169050919050565b6000612338826122d6565b61234281856122e1565b93506123528185602086016122f2565b61235b8161231c565b840191505092915050565b60006020820190508181036000830152612380818461232d565b905092915050565b6000819050919050565b61239b81612388565b81146123a657600080fd5b50565b6000813590506123b881612392565b92915050565b6000602082840312156123d4576123d36121b8565b5b60006123e2848285016123a9565b91505092915050565b600073ffffffffffffffffffffffffffffffffffffffff82169050919050565b6000612416826123eb565b9050919050565b6124268161240b565b82525050565b6000602082019050612441600083018461241d565b92915050565b6124508161240b565b811461245b57600080fd5b50565b60008135905061246d81612447565b92915050565b6000806040838503121561248a576124896121b8565b5b60006124988582860161245e565b92505060206124a9858286016123a9565b9150509250929050565b6000806000606084860312156124cc576124cb6121b8565b5b60006124da8682870161245e565b93505060206124eb8682870161245e565b92505060406124fc868287016123a9565b9150509250925092565b600060ff82169050919050565b61251c81612506565b811461252757600080fd5b50565b60008135905061253981612513565b92915050565b600080fd5b600080fd5b7f4e487b7100000000000000000000000000000000000000000000000000000000600052604160045260246000fd5b6125818261231c565b810181811067ffffffffffffffff821117156125a05761259f612549565b5b80604052505050565b60006125b36121ae565b90506125bf8282612578565b919050565b600067ffffffffffffffff8211156125df576125de612549565b5b6125e88261231c565b9050602081019050919050565b82818337600083830152505050565b6000612617612612846125c4565b6125a9565b90508281526020810184848401111561263357612632612544565b5b61263e8482856125f5565b509392505050565b600082601f83011261265b5761265a61253f565b5b813561266b848260208601612604565b91505092915050565b6000806040838503121561268b5761268a6121b8565b5b60006126998582860161252a565b925050602083013567ffffffffffffffff8111156126ba576126b96121bd565b5b6126c685828601612646565b9150509250929050565b6126d981612506565b82525050565b60006020820190506126f460008301846126d0565b92915050565b6000612705826123eb565b9050919050565b612715816126fa565b811461272057600080fd5b50565b6000813590506127328161270c565b92915050565b60006020828403121561274e5761274d6121b8565b5b600061275c84828501612723565b91505092915050565b61276e81612388565b82525050565b60006020820190506127896000830184612765565b92915050565b6000602082840312156127a5576127a46121b8565b5b60006127b38482850161245e565b91505092915050565b600080604083850312156127d3576127d26121b8565b5b60006127e18582860161245e565b92505060206127f2858286016121e5565b9150509250929050565b600067ffffffffffffffff82111561281757612816612549565b5b6128208261231c565b9050602081019050919050565b600061284061283b846127fc565b6125a9565b90508281526020810184848401111561285c5761285b612544565b5b6128678482856125f5565b509392505050565b600082601f8301126128845761288361253f565b5b813561289484826020860161282d565b91505092915050565b600080600080608085870312156128b7576128b66121b8565b5b60006128c58782880161245e565b94505060206128d68782880161245e565b93505060406128e7878288016123a9565b925050606085013567ffffffffffffffff811115612908576129076121bd565b5b6129148782880161286f565b91505092959194509250565b600061ffff82169050919050565b61293781612920565b82525050565b6000602082019050612952600083018461292e565b92915050565b6000806040838503121561296f5761296e6121b8565b5b600061297d8582860161245e565b925050602061298e8582860161245e565b9150509250929050565b7f4e487b7100000000000000000000000000000000000000000000000000000000600052602260045260246000fd5b600060028204905060018216806129df57607f821691505b6020821081036129f2576129f1612998565b5b50919050565b7f4552433732313a20617070726f76616c20746f2063757272656e74206f776e6560008201527f7200000000000000000000000000000000000000000000000000000000000000602082015250565b6000612a546021836122e1565b9150612a5f826129f8565b604082019050919050565b60006020820190508181036000830152612a8381612a47565b9050919050565b7f4552433732313a20617070726f76652063616c6c6572206973206e6f7420746f60008201527f6b656e206f776e6572206f7220617070726f76656420666f7220616c6c000000602082015250565b6000612ae6603d836122e1565b9150612af182612a8a565b604082019050919050565b60006020820190508181036000830152612b1581612ad9565b9050919050565b7f4552433732313a2063616c6c6572206973206e6f7420746f6b656e206f776e6560008201527f72206f7220617070726f76656400000000000000000000000000000000000000602082015250565b6000612b78602d836122e1565b9150612b8382612b1c565b604082019050919050565b60006020820190508181036000830152612ba781612b6b565b9050919050565b7f5075626c6963206d696e74696e67206e6f7420616c6c6f776564000000000000600082015250565b6000612be4601a836122e1565b9150612bef82612bae565b602082019050919050565b60006020820190508181036000830152612c1381612bd7565b9050919050565b7f536f7272792c206d617820737570706c79206f6620746f6b656e73207761732060008201527f7265616368656400000000000000000000000000000000000000000000000000602082015250565b6000612c766027836122e1565b9150612c8182612c1a565b604082019050919050565b60006020820190508181036000830152612ca581612c69565b9050919050565b7f536f7272792c20796f7520616c7265616479206d696e74656420746865206d6160008201527f78696d756d206f6620247b6d617850657257616c6c65747d20746f6b656e7300602082015250565b6000612d08603f836122e1565b9150612d1382612cac565b604082019050919050565b60006020820190508181036000830152612d3781612cfb565b9050919050565b7f4e487b7100000000000000000000000000000000000000000000000000000000600052601160045260246000fd5b6000612d7882612388565b9150612d8383612388565b9250828202612d9181612388565b91508282048414831517612da857612da7612d3e565b5b5092915050565b7f57726f6e67206d696e7420616d6f756e74000000000000000000000000000000600082015250565b6000612de56011836122e1565b9150612df082612daf565b602082019050919050565b60006020820190508181036000830152612e1481612dd8565b9050919050565b6000612e2682612506565b915060ff8203612e3957612e38612d3e565b5b600182019050919050565b600081905092915050565b50565b6000612e5f600083612e44565b9150612e6a82612e4f565b600082019050919050565b6000612e8082612e52565b9150819050919050565b7f576974686472617720686173206661696c656400000000000000000000000000600082015250565b6000612ec06013836122e1565b9150612ecb82612e8a565b602082019050919050565b60006020820190508181036000830152612eef81612eb3565b9050919050565b7f4552433732313a20696e76616c696420746f6b656e2049440000000000000000600082015250565b6000612f2c6018836122e1565b9150612f3782612ef6565b602082019050919050565b60006020820190508181036000830152612f5b81612f1f565b9050919050565b7f4552433732313a2061646472657373207a65726f206973206e6f74206120766160008201527f6c6964206f776e65720000000000000000000000000000000000000000000000602082015250565b6000612fbe6029836122e1565b9150612fc982612f62565b604082019050919050565b60006020820190508181036000830152612fed81612fb1565b9050919050565b7f4f776e61626c653a206e6577206f776e657220697320746865207a65726f206160008201527f6464726573730000000000000000000000000000000000000000000000000000602082015250565b60006130506026836122e1565b915061305b82612ff4565b604082019050919050565b6000602082019050818103600083015261307f81613043565b9050919050565b7f4f776e61626c653a2063616c6c6572206973206e6f7420746865206f776e6572600082015250565b60006130bc6020836122e1565b91506130c782613086565b602082019050919050565b600060208201905081810360008301526130eb816130af565b9050919050565b7f4552433732313a207472616e736665722066726f6d20696e636f72726563742060008201527f6f776e6572000000000000000000000000000000000000000000000000000000602082015250565b600061314e6025836122e1565b9150613159826130f2565b604082019050919050565b6000602082019050818103600083015261317d81613141565b9050919050565b7f4552433732313a207472616e7366657220746f20746865207a65726f2061646460008201527f7265737300000000000000000000000000000000000000000000000000000000602082015250565b60006131e06024836122e1565b91506131eb82613184565b604082019050919050565b6000602082019050818103600083015261320f816131d3565b9050919050565b7f45524337323155524953746f726167653a2055524920736574206f66206e6f6e60008201527f6578697374656e7420746f6b656e000000000000000000000000000000000000602082015250565b6000613272602e836122e1565b915061327d82613216565b604082019050919050565b600060208201905081810360008301526132a181613265565b9050919050565b60008190508160005260206000209050919050565b60006020601f8301049050919050565b600082821b905092915050565b60006008830261330a7fffffffffffffffffffffffffffffffffffffffffffffffffffffffffffffffff826132cd565b61331486836132cd565b95508019841693508086168417925050509392505050565b6000819050919050565b600061335161334c61334784612388565b61332c565b612388565b9050919050565b6000819050919050565b61336b83613336565b61337f61337782613358565b8484546132da565b825550505050565b600090565b613394613387565b61339f818484613362565b505050565b5b818110156133c3576133b860008261338c565b6001810190506133a5565b5050565b601f821115613408576133d9816132a8565b6133e2846132bd565b810160208510156133f1578190505b6134056133fd856132bd565b8301826133a4565b50505b505050565b600082821c905092915050565b600061342b6000198460080261340d565b1980831691505092915050565b6000613444838361341a565b9150826002028217905092915050565b61345d826122d6565b67ffffffffffffffff81111561347657613475612549565b5b61348082546129c7565b61348b8282856133c7565b600060209050601f8311600181146134be57600084156134ac578287015190505b6134b68582613438565b86555061351e565b601f1984166134cc866132a8565b60005b828110156134f4578489015182556001820191506020850194506020810190506134cf565b86831015613511578489015161350d601f89168261341a565b8355505b6001600288020188555050505b505050505050565b7f4552433732313a20617070726f766520746f2063616c6c657200000000000000600082015250565b600061355c6019836122e1565b915061356782613526565b602082019050919050565b6000602082019050818103600083015261358b8161354f565b9050919050565b7f4552433732313a207472616e7366657220746f206e6f6e20455243373231526560008201527f63656976657220696d706c656d656e7465720000000000000000000000000000602082015250565b60006135ee6032836122e1565b91506135f982613592565b604082019050919050565b6000602082019050818103600083015261361d816135e1565b9050919050565b600081905092915050565b600061363a826122d6565b6136448185613624565b93506136548185602086016122f2565b80840191505092915050565b600061366c828561362f565b9150613678828461362f565b91508190509392505050565b600081519050919050565b600082825260208201905092915050565b60006136ab82613684565b6136b5818561368f565b93506136c58185602086016122f2565b6136ce8161231c565b840191505092915050565b60006080820190506136ee600083018761241d565b6136fb602083018661241d565b6137086040830185612765565b818103606083015261371a81846136a0565b905095945050505050565b60008151905061373481612253565b92915050565b6000602082840312156137505761374f6121b8565b5b600061375e84828501613725565b91505092915050565b7f4552433732313a206d696e7420746f20746865207a65726f2061646472657373600082015250565b600061379d6020836122e1565b91506137a882613767565b602082019050919050565b600060208201905081810360008301526137cc81613790565b9050919050565b7f4552433732313a20746f6b656e20616c7265616479206d696e74656400000000600082015250565b6000613809601c836122e1565b9150613814826137d3565b602082019050919050565b60006020820190508181036000830152613838816137fc565b9050919050565b7f4e487b7100000000000000000000000000000000000000000000000000000000600052601260045260246000fdfe697066733a2f2f516d597235794874354a396867674279476d4b34464e6d46587153754136785838347a7a426531313179416e7a6f2fa2646970667358221220e2c7f8c16b420382b50efddbcfac299a26240e7d8d0a65d283e4846dedcd759d64736f6c63430008120033",
  "linkReferences": {},
  "deployedLinkReferences": {}
}